{
  "contractName": "StakingFarm2",
  "abi": [
    {
      "inputs": [
        {
          "internalType": "contract RapidToken",
          "name": "_rapidToken",
          "type": "address"
        },
        {
          "internalType": "contract RewardToken",
          "name": "_rewardToken",
          "type": "address"
        }
      ],
      "stateMutability": "nonpayable",
      "type": "constructor"
    },
    {
      "inputs": [],
      "name": "currentStakingRound",
      "outputs": [
        {
          "internalType": "uint256",
          "name": "",
          "type": "uint256"
        }
      ],
      "stateMutability": "view",
      "type": "function",
      "constant": true
    },
    {
      "inputs": [],
      "name": "currentStakingRoundStartTime",
      "outputs": [
        {
          "internalType": "uint256",
          "name": "",
          "type": "uint256"
        }
      ],
      "stateMutability": "view",
      "type": "function",
      "constant": true
    },
    {
      "inputs": [
        {
          "internalType": "address",
          "name": "",
          "type": "address"
        }
      ],
      "name": "hasStaked",
      "outputs": [
        {
          "internalType": "bool",
          "name": "",
          "type": "bool"
        }
      ],
      "stateMutability": "view",
      "type": "function",
      "constant": true
    },
    {
      "inputs": [
        {
          "internalType": "uint256",
          "name": "",
          "type": "uint256"
        }
      ],
      "name": "isCurrentStakingRoundEnded",
      "outputs": [
        {
          "internalType": "bool",
          "name": "",
          "type": "bool"
        }
      ],
      "stateMutability": "view",
      "type": "function",
      "constant": true
    },
    {
      "inputs": [
        {
          "internalType": "address",
          "name": "",
          "type": "address"
        }
      ],
      "name": "isStaking",
      "outputs": [
        {
          "internalType": "bool",
          "name": "",
          "type": "bool"
        }
      ],
      "stateMutability": "view",
      "type": "function",
      "constant": true
    },
    {
      "inputs": [],
      "name": "nextStakingRoundStartTime",
      "outputs": [
        {
          "internalType": "uint256",
          "name": "",
          "type": "uint256"
        }
      ],
      "stateMutability": "view",
      "type": "function",
      "constant": true
    },
    {
      "inputs": [],
      "name": "rapidToken",
      "outputs": [
        {
          "internalType": "contract RapidToken",
          "name": "",
          "type": "address"
        }
      ],
      "stateMutability": "view",
      "type": "function",
      "constant": true
    },
    {
      "inputs": [],
      "name": "rewardToken",
      "outputs": [
        {
          "internalType": "contract RewardToken",
          "name": "",
          "type": "address"
        }
      ],
      "stateMutability": "view",
      "type": "function",
      "constant": true
    },
    {
      "inputs": [
        {
          "internalType": "uint256",
          "name": "",
          "type": "uint256"
        }
      ],
      "name": "stakers",
      "outputs": [
        {
          "internalType": "address",
          "name": "",
          "type": "address"
        }
      ],
      "stateMutability": "view",
      "type": "function",
      "constant": true
    },
    {
      "inputs": [
        {
          "internalType": "address",
          "name": "",
          "type": "address"
        }
      ],
      "name": "stakingBalances",
      "outputs": [
        {
          "internalType": "uint256",
          "name": "pendingRewards",
          "type": "uint256"
        },
        {
          "internalType": "uint256",
          "name": "stakedTokens",
          "type": "uint256"
        },
        {
          "internalType": "uint256",
          "name": "toBeCalculatedFrom",
          "type": "uint256"
        }
      ],
      "stateMutability": "view",
      "type": "function",
      "constant": true
    },
    {
      "inputs": [],
      "name": "totalStakedTokens",
      "outputs": [
        {
          "internalType": "uint256",
          "name": "",
          "type": "uint256"
        }
      ],
      "stateMutability": "view",
      "type": "function",
      "constant": true
    },
    {
      "inputs": [],
      "name": "newStakingRound",
      "outputs": [],
      "stateMutability": "nonpayable",
      "type": "function"
    },
    {
      "inputs": [
        {
          "internalType": "uint256",
          "name": "_amount",
          "type": "uint256"
        }
      ],
      "name": "stakeTokens",
      "outputs": [],
      "stateMutability": "nonpayable",
      "type": "function"
    },
    {
      "inputs": [],
      "name": "computeTotalStakingWeight",
      "outputs": [
        {
          "internalType": "uint256",
          "name": "",
          "type": "uint256"
        }
      ],
      "stateMutability": "view",
      "type": "function",
      "constant": true
    }
  ],
  "bytecode": "0x6080604052600060025560006003556000600455600a6005556001601e62000028919062000162565b60055462000037919062000162565b60065560006007553480156200004c57600080fd5b506040516200144a3803806200144a833981810160405281019062000072919062000286565b816000806101000a81548173ffffffffffffffffffffffffffffffffffffffff021916908373ffffffffffffffffffffffffffffffffffffffff16021790555080600160006101000a81548173ffffffffffffffffffffffffffffffffffffffff021916908373ffffffffffffffffffffffffffffffffffffffff1602179055506001600c6000600254815260200190815260200160002060006101000a81548160ff0219169083151502179055505050620002cd565b6000819050919050565b7f4e487b7100000000000000000000000000000000000000000000000000000000600052601160045260246000fd5b60006200016f8262000129565b91506200017c8362000129565b9250817fffffffffffffffffffffffffffffffffffffffffffffffffffffffffffffffff0483118215151615620001b857620001b762000133565b5b828202905092915050565b600080fd5b600073ffffffffffffffffffffffffffffffffffffffff82169050919050565b6000620001f582620001c8565b9050919050565b60006200020982620001e8565b9050919050565b6200021b81620001fc565b81146200022757600080fd5b50565b6000815190506200023b8162000210565b92915050565b60006200024e82620001e8565b9050919050565b620002608162000241565b81146200026c57600080fd5b50565b600081519050620002808162000255565b92915050565b60008060408385031215620002a0576200029f620001c3565b5b6000620002b0858286016200022a565b9250506020620002c3858286016200026f565b9150509250929050565b61116d80620002dd6000396000f3fe608060405234801561001057600080fd5b50600436106100ea5760003560e01c8063b5244dbe1161008c578063eb6b0f6511610066578063eb6b0f651461024f578063f62750ab1461026d578063f7c618c11461028b578063fd5e6dd1146102a9576100ea565b8063b5244dbe146101d1578063c93c8f3414610201578063e3d46cd314610231576100ea565b806361b8b5dc116100c857806361b8b5dc1461013557806365c2dc7e146101675780636f49712b146101855780637547c7a3146101b5576100ea565b8063038fee79146100ef5780630c0a8d59146100f95780633ae7325914610117575b600080fd5b6100f76102d9565b005b61010161040c565b60405161010e9190610b6d565b60405180910390f35b61011f610412565b60405161012c9190610b6d565b60405180910390f35b61014f600480360381019061014a9190610beb565b610418565b60405161015e93929190610c18565b60405180910390f35b61016f610442565b60405161017c9190610b6d565b60405180910390f35b61019f600480360381019061019a9190610beb565b610448565b6040516101ac9190610c6a565b60405180910390f35b6101cf60048036038101906101ca9190610cb1565b610468565b005b6101eb60048036038101906101e69190610cb1565b6107fb565b6040516101f89190610c6a565b60405180910390f35b61021b60048036038101906102169190610beb565b61081b565b6040516102289190610c6a565b60405180910390f35b61023961083b565b6040516102469190610d3d565b60405180910390f35b61025761085f565b6040516102649190610b6d565b60405180910390f35b610275610865565b6040516102829190610b6d565b60405180910390f35b610293610aef565b6040516102a09190610d79565b60405180910390f35b6102c360048036038101906102be9190610cb1565b610b15565b6040516102d09190610da3565b60405180910390f35b600c6000600254815260200190815260200160002060009054906101000a900460ff1661033b576040517f08c379a000000000000000000000000000000000000000000000000000000000815260040161033290610e41565b60405180910390fd5b6002600081548092919061034e90610e90565b9190505550600160009054906101000a900473ffffffffffffffffffffffffffffffffffffffff1673ffffffffffffffffffffffffffffffffffffffff166340c10f19306006546040518363ffffffff1660e01b81526004016103b2929190610ed9565b600060405180830381600087803b1580156103cc57600080fd5b505af11580156103e0573d6000803e3d6000fd5b50505050436003819055506001601e6103f99190610f02565b436104049190610f5c565b600481905550565b60035481565b60075481565b60096020528060005260406000206000915090508060000154908060010154908060020154905083565b60025481565b600b6020528060005260406000206000915054906101000a900460ff1681565b600081116104ab576040517f08c379a00000000000000000000000000000000000000000000000000000000081526004016104a290611024565b60405180910390fd5b60008054906101000a900473ffffffffffffffffffffffffffffffffffffffff1673ffffffffffffffffffffffffffffffffffffffff166323b872dd3330846040518463ffffffff1660e01b815260040161050893929190611044565b6020604051808303816000875af1158015610527573d6000803e3d6000fd5b505050506040513d601f19601f8201168201806040525081019061054b91906110a7565b50806007600082825461055e9190610f5c565b92505081905550600a60003373ffffffffffffffffffffffffffffffffffffffff1673ffffffffffffffffffffffffffffffffffffffff16815260200190815260200160002060009054906101000a900460ff16610676576008339080600181540180825580915050600190039060005260206000200160009091909190916101000a81548173ffffffffffffffffffffffffffffffffffffffff021916908373ffffffffffffffffffffffffffffffffffffffff1602179055506001600a60003373ffffffffffffffffffffffffffffffffffffffff1673ffffffffffffffffffffffffffffffffffffffff16815260200190815260200160002060006101000a81548160ff021916908315150217905550610700565b6003544361068491906110d4565b6001601e6106929190610f02565b61069c91906110d4565b816106a79190610f02565b600960003373ffffffffffffffffffffffffffffffffffffffff1673ffffffffffffffffffffffffffffffffffffffff16815260200190815260200160002060000160008282546106f89190610f5c565b925050819055505b43600960003373ffffffffffffffffffffffffffffffffffffffff1673ffffffffffffffffffffffffffffffffffffffff1681526020019081526020016000206002018190555080600960003373ffffffffffffffffffffffffffffffffffffffff1673ffffffffffffffffffffffffffffffffffffffff16815260200190815260200160002060010160008282546107999190610f5c565b925050819055506001600b60003373ffffffffffffffffffffffffffffffffffffffff1673ffffffffffffffffffffffffffffffffffffffff16815260200190815260200160002060006101000a81548160ff02191690831515021790555050565b600c6020528060005260406000206000915054906101000a900460ff1681565b600a6020528060005260406000206000915054906101000a900460ff1681565b60008054906101000a900473ffffffffffffffffffffffffffffffffffffffff1681565b60045481565b6000806000905060005b600880549050811015610ae757600b60006008838154811061089457610893611108565b5b9060005260206000200160009054906101000a900473ffffffffffffffffffffffffffffffffffffffff1673ffffffffffffffffffffffffffffffffffffffff1673ffffffffffffffffffffffffffffffffffffffff16815260200190815260200160002060009054906101000a900460ff1615610ad457600960006008838154811061092457610923611108565b5b9060005260206000200160009054906101000a900473ffffffffffffffffffffffffffffffffffffffff1673ffffffffffffffffffffffffffffffffffffffff1673ffffffffffffffffffffffffffffffffffffffff1681526020019081526020016000206000015460096000600884815481106109a5576109a4611108565b5b9060005260206000200160009054906101000a900473ffffffffffffffffffffffffffffffffffffffff1673ffffffffffffffffffffffffffffffffffffffff1673ffffffffffffffffffffffffffffffffffffffff1681526020019081526020016000206002015443610a1991906110d4565b6001601e610a279190610f02565b610a3191906110d4565b6009600060088581548110610a4957610a48611108565b5b9060005260206000200160009054906101000a900473ffffffffffffffffffffffffffffffffffffffff1673ffffffffffffffffffffffffffffffffffffffff1673ffffffffffffffffffffffffffffffffffffffff16815260200190815260200160002060010154610abc9190610f02565b610ac69190610f5c565b82610ad19190610f5c565b91505b8080610adf90610e90565b91505061086f565b508091505090565b600160009054906101000a900473ffffffffffffffffffffffffffffffffffffffff1681565b60088181548110610b2557600080fd5b906000526020600020016000915054906101000a900473ffffffffffffffffffffffffffffffffffffffff1681565b6000819050919050565b610b6781610b54565b82525050565b6000602082019050610b826000830184610b5e565b92915050565b600080fd5b600073ffffffffffffffffffffffffffffffffffffffff82169050919050565b6000610bb882610b8d565b9050919050565b610bc881610bad565b8114610bd357600080fd5b50565b600081359050610be581610bbf565b92915050565b600060208284031215610c0157610c00610b88565b5b6000610c0f84828501610bd6565b91505092915050565b6000606082019050610c2d6000830186610b5e565b610c3a6020830185610b5e565b610c476040830184610b5e565b949350505050565b60008115159050919050565b610c6481610c4f565b82525050565b6000602082019050610c7f6000830184610c5b565b92915050565b610c8e81610b54565b8114610c9957600080fd5b50565b600081359050610cab81610c85565b92915050565b600060208284031215610cc757610cc6610b88565b5b6000610cd584828501610c9c565b91505092915050565b6000819050919050565b6000610d03610cfe610cf984610b8d565b610cde565b610b8d565b9050919050565b6000610d1582610ce8565b9050919050565b6000610d2782610d0a565b9050919050565b610d3781610d1c565b82525050565b6000602082019050610d526000830184610d2e565b92915050565b6000610d6382610d0a565b9050919050565b610d7381610d58565b82525050565b6000602082019050610d8e6000830184610d6a565b92915050565b610d9d81610bad565b82525050565b6000602082019050610db86000830184610d94565b92915050565b600082825260208201905092915050565b7f43616e6e6f74207374617274206e6577207374616b696e6720726f756e64206260008201527f65666f7265207468652063757272656e74206f6e6520697320656e6465640000602082015250565b6000610e2b603e83610dbe565b9150610e3682610dcf565b604082019050919050565b60006020820190508181036000830152610e5a81610e1e565b9050919050565b7f4e487b7100000000000000000000000000000000000000000000000000000000600052601160045260246000fd5b6000610e9b82610b54565b91507fffffffffffffffffffffffffffffffffffffffffffffffffffffffffffffffff821415610ece57610ecd610e61565b5b600182019050919050565b6000604082019050610eee6000830185610d94565b610efb6020830184610b5e565b9392505050565b6000610f0d82610b54565b9150610f1883610b54565b9250817fffffffffffffffffffffffffffffffffffffffffffffffffffffffffffffffff0483118215151615610f5157610f50610e61565b5b828202905092915050565b6000610f6782610b54565b9150610f7283610b54565b9250827fffffffffffffffffffffffffffffffffffffffffffffffffffffffffffffffff03821115610fa757610fa6610e61565b5b828201905092915050565b7f5374616b696e6720616d6f756e74206d7573742062652067726561746572207460008201527f68616e2030000000000000000000000000000000000000000000000000000000602082015250565b600061100e602583610dbe565b915061101982610fb2565b604082019050919050565b6000602082019050818103600083015261103d81611001565b9050919050565b60006060820190506110596000830186610d94565b6110666020830185610d94565b6110736040830184610b5e565b949350505050565b61108481610c4f565b811461108f57600080fd5b50565b6000815190506110a18161107b565b92915050565b6000602082840312156110bd576110bc610b88565b5b60006110cb84828501611092565b91505092915050565b60006110df82610b54565b91506110ea83610b54565b9250828210156110fd576110fc610e61565b5b828203905092915050565b7f4e487b7100000000000000000000000000000000000000000000000000000000600052603260045260246000fdfea26469706673582212202df8ef1814430899492e9f2d29054cb194cc849f4ae0ae23f12ca703e03fc84664736f6c634300080b0033",
  "immutableReferences": {},
  "source": "pragma solidity ^0.8.0;\n\nimport \"./RapidToken.sol\";\nimport \"./RewardToken.sol\";\n\ncontract StakingFarm2 {\n\n    RapidToken public rapidToken;\n    RewardToken public rewardToken;\n\n    uint constant  numberOfBlocksPerDay = 1; // Estimating Block Generation time as 3 seconds per block\n    uint constant stakingDays = 30;\n\n    uint constant stakingPeriod = stakingDays * numberOfBlocksPerDay;\n    uint public currentStakingRound = 0;\n    uint public currentStakingRoundStartTime = 0;\n    uint public nextStakingRoundStartTime = 0;\n    uint rewardTokenPerBlock = 10 ;\n    uint rewardTokensPerStakingPeriod = rewardTokenPerBlock * stakingPeriod;\n    uint public totalStakedTokens = 0;\n\n    address[] public stakers;\n\n    struct stakingBalance {\n        uint pendingRewards;\n        uint stakedTokens;\n        uint toBeCalculatedFrom;\n    }\n    mapping(address=>stakingBalance) public stakingBalances;\n    mapping(address=>bool) public hasStaked;\n    mapping(address=>bool) public isStaking;\n    mapping(uint=>bool) public isCurrentStakingRoundEnded;\n\n    constructor(RapidToken _rapidToken, RewardToken _rewardToken)  {\n        rapidToken = _rapidToken;\n        rewardToken = _rewardToken;\n        isCurrentStakingRoundEnded[currentStakingRound] = true;\n    }\n\n    function newStakingRound() public {\n        require(isCurrentStakingRoundEnded[currentStakingRound],\"Cannot start new staking round before the current one is ended\");\n        currentStakingRound++;\n        rewardToken.mint(address(this), rewardTokensPerStakingPeriod);\n        currentStakingRoundStartTime = block.number;\n        nextStakingRoundStartTime = block.number + stakingPeriod;\n    }\n\n    function stakeTokens(uint _amount) public {\n        require(_amount>0, \"Staking amount must be greater than 0\");\n        rapidToken.transferFrom(msg.sender, address(this), _amount);        \n        totalStakedTokens += _amount;\n        if(!hasStaked[msg.sender]){\n            stakers.push(msg.sender);\n            hasStaked[msg.sender] = true;\n        }\n        else {\n            stakingBalances[msg.sender].pendingRewards += _amount * (stakingPeriod - (block.number - currentStakingRoundStartTime));\n        }\n        stakingBalances[msg.sender].toBeCalculatedFrom = block.number;\n        stakingBalances[msg.sender].stakedTokens += _amount;\n        isStaking[msg.sender] = true;\n    }\n\n    // function refundStakeAndIssueReward() public {\n    //     require(block.number>nextStakingRoundStartTime, \"Cannot issue tokens before the current staking round is ended\");\n    //     for(uint i=0; i<stakers.length; i++) {\n    //         if(isStaking[stakers[i]]) {\n    //             uint reward = (stakingBalances[stakers[i]].stakedTokens * rewardTokensPerStakingPeriod)/totalStakedTokens;\n    //             rewardToken.transfer(stakers[i], reward);\n    //             uint balance = stakingBalances[stakers[i]].stakedTokens;\n    //             rapidToken.transfer(stakers[i], balance);\n    //             stakingBalances[stakers[i]].pendingRewards = 0;\n    //             stakingBalances[stakers[i]].stakedTokens = 0;\n    //         }\n    //     }\n    //     isCurrentStakingRoundEnded[currentStakingRound] = true;\n    // }\n\n    function computeTotalStakingWeight() public view returns(uint){\n        uint totalStakingWeight = 0;\n        for(uint i=0; i<stakers.length; i++) {\n            if(isStaking[stakers[i]]) {\n                totalStakingWeight += stakingBalances[stakers[i]].stakedTokens * (stakingPeriod - (block.number - stakingBalances[stakers[i]].toBeCalculatedFrom)) + stakingBalances[stakers[i]].pendingRewards;\n            }\n        }\n        return totalStakingWeight;\n    }\n\n    \n\n}",
  "sourcePath": "/home/mnr/workspace/Blockchain_Projects/Rapid/contracts/StakingFarm2.sol",
  "compiler": {
    "name": "solc",
    "version": "0.8.11+commit.d7f03943.Emscripten.clang"
  },
  "schemaVersion": "3.4.4",
  "updatedAt": "2022-03-18T03:56:29.698Z",
  "networkType": "ethereum",
  "devdoc": {
    "kind": "dev",
    "methods": {},
    "version": 1
  },
  "userdoc": {
    "kind": "user",
    "methods": {},
    "version": 1
  }
}