{
  "contractName": "StakingFarm",
  "abi": [
    {
      "inputs": [
        {
          "internalType": "contract RapidToken",
          "name": "_rapidToken",
          "type": "address"
        },
        {
          "internalType": "contract RewardToken",
          "name": "_rewardToken",
          "type": "address"
        }
      ],
      "stateMutability": "nonpayable",
      "type": "constructor"
    },
    {
      "inputs": [],
      "name": "currentStakingRound",
      "outputs": [
        {
          "internalType": "uint256",
          "name": "",
          "type": "uint256"
        }
      ],
      "stateMutability": "view",
      "type": "function",
      "constant": true
    },
    {
      "inputs": [
        {
          "internalType": "address",
          "name": "",
          "type": "address"
        }
      ],
      "name": "hasStaked",
      "outputs": [
        {
          "internalType": "bool",
          "name": "",
          "type": "bool"
        }
      ],
      "stateMutability": "view",
      "type": "function",
      "constant": true
    },
    {
      "inputs": [
        {
          "internalType": "uint256",
          "name": "",
          "type": "uint256"
        }
      ],
      "name": "isCurrentStakingRoundEnded",
      "outputs": [
        {
          "internalType": "bool",
          "name": "",
          "type": "bool"
        }
      ],
      "stateMutability": "view",
      "type": "function",
      "constant": true
    },
    {
      "inputs": [
        {
          "internalType": "address",
          "name": "",
          "type": "address"
        }
      ],
      "name": "isStaking",
      "outputs": [
        {
          "internalType": "bool",
          "name": "",
          "type": "bool"
        }
      ],
      "stateMutability": "view",
      "type": "function",
      "constant": true
    },
    {
      "inputs": [],
      "name": "nextStakingRoundStartTime",
      "outputs": [
        {
          "internalType": "uint256",
          "name": "",
          "type": "uint256"
        }
      ],
      "stateMutability": "view",
      "type": "function",
      "constant": true
    },
    {
      "inputs": [],
      "name": "rapidToken",
      "outputs": [
        {
          "internalType": "contract RapidToken",
          "name": "",
          "type": "address"
        }
      ],
      "stateMutability": "view",
      "type": "function",
      "constant": true
    },
    {
      "inputs": [],
      "name": "rewardToken",
      "outputs": [
        {
          "internalType": "contract RewardToken",
          "name": "",
          "type": "address"
        }
      ],
      "stateMutability": "view",
      "type": "function",
      "constant": true
    },
    {
      "inputs": [
        {
          "internalType": "uint256",
          "name": "",
          "type": "uint256"
        }
      ],
      "name": "stakers",
      "outputs": [
        {
          "internalType": "address",
          "name": "",
          "type": "address"
        }
      ],
      "stateMutability": "view",
      "type": "function",
      "constant": true
    },
    {
      "inputs": [
        {
          "internalType": "address",
          "name": "",
          "type": "address"
        }
      ],
      "name": "stakingBalance",
      "outputs": [
        {
          "internalType": "uint256",
          "name": "",
          "type": "uint256"
        }
      ],
      "stateMutability": "view",
      "type": "function",
      "constant": true
    },
    {
      "inputs": [],
      "name": "totalStakedTokens",
      "outputs": [
        {
          "internalType": "uint256",
          "name": "",
          "type": "uint256"
        }
      ],
      "stateMutability": "view",
      "type": "function",
      "constant": true
    },
    {
      "inputs": [],
      "name": "newStakingRound",
      "outputs": [],
      "stateMutability": "nonpayable",
      "type": "function"
    },
    {
      "inputs": [
        {
          "internalType": "uint256",
          "name": "_amount",
          "type": "uint256"
        }
      ],
      "name": "stakeTokens",
      "outputs": [],
      "stateMutability": "nonpayable",
      "type": "function"
    },
    {
      "inputs": [],
      "name": "unStakeTokens",
      "outputs": [],
      "stateMutability": "nonpayable",
      "type": "function"
    },
    {
      "inputs": [],
      "name": "issueTokens",
      "outputs": [],
      "stateMutability": "nonpayable",
      "type": "function"
    }
  ],
  "bytecode": "0x608060405260006002556000600355670de0b6b3a76400006004556001601e6200002a919062000136565b60045462000039919062000136565b60055560006006553480156200004e57600080fd5b50604051620015a9380380620015a983398181016040528101906200007491906200025a565b816000806101000a81548173ffffffffffffffffffffffffffffffffffffffff021916908373ffffffffffffffffffffffffffffffffffffffff16021790555080600160006101000a81548173ffffffffffffffffffffffffffffffffffffffff021916908373ffffffffffffffffffffffffffffffffffffffff1602179055505050620002a1565b6000819050919050565b7f4e487b7100000000000000000000000000000000000000000000000000000000600052601160045260246000fd5b60006200014382620000fd565b91506200015083620000fd565b9250817fffffffffffffffffffffffffffffffffffffffffffffffffffffffffffffffff04831182151516156200018c576200018b62000107565b5b828202905092915050565b600080fd5b600073ffffffffffffffffffffffffffffffffffffffff82169050919050565b6000620001c9826200019c565b9050919050565b6000620001dd82620001bc565b9050919050565b620001ef81620001d0565b8114620001fb57600080fd5b50565b6000815190506200020f81620001e4565b92915050565b60006200022282620001bc565b9050919050565b620002348162000215565b81146200024057600080fd5b50565b600081519050620002548162000229565b92915050565b6000806040838503121562000274576200027362000197565b5b60006200028485828601620001fe565b9250506020620002978582860162000243565b9150509250929050565b6112f880620002b16000396000f3fe608060405234801561001057600080fd5b50600436106100ea5760003560e01c80637896bf1d1161008c578063e3d46cd311610066578063e3d46cd314610225578063eb6b0f6514610243578063f7c618c114610261578063fd5e6dd11461027f576100ea565b80637896bf1d146101bb578063b5244dbe146101c5578063c93c8f34146101f5576100ea565b806360ab5852116100c857806360ab58521461014757806365c2dc7e146101515780636f49712b1461016f5780637547c7a31461019f576100ea565b8063038fee79146100ef5780633ae73259146100f957806345bc78ab14610117575b600080fd5b6100f76102af565b005b6101016103eb565b60405161010e9190610b4d565b60405180910390f35b610131600480360381019061012c9190610bcb565b6103f1565b60405161013e9190610b4d565b60405180910390f35b61014f610409565b005b61015961061d565b6040516101669190610b4d565b60405180910390f35b61018960048036038101906101849190610bcb565b610623565b6040516101969190610c13565b60405180910390f35b6101b960048036038101906101b49190610c5a565b610643565b005b6101c361083b565b005b6101df60048036038101906101da9190610c5a565b610a65565b6040516101ec9190610c13565b60405180910390f35b61020f600480360381019061020a9190610bcb565b610a85565b60405161021c9190610c13565b60405180910390f35b61022d610aa5565b60405161023a9190610ce6565b60405180910390f35b61024b610ac9565b6040516102589190610b4d565b60405180910390f35b610269610acf565b6040516102769190610d22565b60405180910390f35b61029960048036038101906102949190610c5a565b610af5565b6040516102a69190610d4c565b60405180910390f35b60035443116102f3576040517f08c379a00000000000000000000000000000000000000000000000000000000081526004016102ea90610dea565b60405180910390fd5b6001600b6000600254815260200190815260200160002060006101000a81548160ff0219169083151502179055506002600081548092919061033490610e39565b9190505550600160009054906101000a900473ffffffffffffffffffffffffffffffffffffffff1673ffffffffffffffffffffffffffffffffffffffff166340c10f19306005546040518363ffffffff1660e01b8152600401610398929190610e82565b600060405180830381600087803b1580156103b257600080fd5b505af11580156103c6573d6000803e3d6000fd5b505050506001601e6103d89190610eab565b436103e39190610f05565b600381905550565b60065481565b60086020528060005260406000206000915090505481565b600354431161044d576040517f08c379a000000000000000000000000000000000000000000000000000000000815260040161044490610fcd565b60405180910390fd5b60005b6007805490508110156105ec576000600654600554600860006007868154811061047d5761047c610fed565b5b9060005260206000200160009054906101000a900473ffffffffffffffffffffffffffffffffffffffff1673ffffffffffffffffffffffffffffffffffffffff1673ffffffffffffffffffffffffffffffffffffffff168152602001908152602001600020546104ed9190610eab565b6104f7919061104b565b9050600160009054906101000a900473ffffffffffffffffffffffffffffffffffffffff1673ffffffffffffffffffffffffffffffffffffffff1663a9059cbb6007848154811061054b5761054a610fed565b5b9060005260206000200160009054906101000a900473ffffffffffffffffffffffffffffffffffffffff16836040518363ffffffff1660e01b8152600401610594929190610e82565b6020604051808303816000875af11580156105b3573d6000803e3d6000fd5b505050506040513d601f19601f820116820180604052508101906105d791906110a8565b505080806105e490610e39565b915050610450565b506001600b6000600254815260200190815260200160002060006101000a81548160ff021916908315150217905550565b60025481565b600a6020528060005260406000206000915054906101000a900460ff1681565b60008111610686576040517f08c379a000000000000000000000000000000000000000000000000000000000815260040161067d90611147565b60405180910390fd5b60008054906101000a900473ffffffffffffffffffffffffffffffffffffffff1673ffffffffffffffffffffffffffffffffffffffff166323b872dd3330846040518463ffffffff1660e01b81526004016106e393929190611167565b6020604051808303816000875af1158015610702573d6000803e3d6000fd5b505050506040513d601f19601f8201168201806040525081019061072691906110a8565b5080600860003373ffffffffffffffffffffffffffffffffffffffff1673ffffffffffffffffffffffffffffffffffffffff16815260200190815260200160002060008282546107769190610f05565b925050819055506007339080600181540180825580915050600190039060005260206000200160009091909190916101000a81548173ffffffffffffffffffffffffffffffffffffffff021916908373ffffffffffffffffffffffffffffffffffffffff1602179055506001600a60003373ffffffffffffffffffffffffffffffffffffffff1673ffffffffffffffffffffffffffffffffffffffff16815260200190815260200160002060006101000a81548160ff02191690831515021790555050565b600b6000600254815260200190815260200160002060009054906101000a900460ff1661089d576040517f08c379a000000000000000000000000000000000000000000000000000000000815260040161089490611210565b60405180910390fd5b6000600860003373ffffffffffffffffffffffffffffffffffffffff1673ffffffffffffffffffffffffffffffffffffffff16815260200190815260200160002054905060008111610924576040517f08c379a000000000000000000000000000000000000000000000000000000000815260040161091b906112a2565b60405180910390fd5b60008054906101000a900473ffffffffffffffffffffffffffffffffffffffff1673ffffffffffffffffffffffffffffffffffffffff166323b872dd3033846040518463ffffffff1660e01b815260040161098193929190611167565b6020604051808303816000875af11580156109a0573d6000803e3d6000fd5b505050506040513d601f19601f820116820180604052508101906109c491906110a8565b506000600860003373ffffffffffffffffffffffffffffffffffffffff1673ffffffffffffffffffffffffffffffffffffffff168152602001908152602001600020819055506000600a60003373ffffffffffffffffffffffffffffffffffffffff1673ffffffffffffffffffffffffffffffffffffffff16815260200190815260200160002060006101000a81548160ff02191690831515021790555050565b600b6020528060005260406000206000915054906101000a900460ff1681565b60096020528060005260406000206000915054906101000a900460ff1681565b60008054906101000a900473ffffffffffffffffffffffffffffffffffffffff1681565b60035481565b600160009054906101000a900473ffffffffffffffffffffffffffffffffffffffff1681565b60078181548110610b0557600080fd5b906000526020600020016000915054906101000a900473ffffffffffffffffffffffffffffffffffffffff1681565b6000819050919050565b610b4781610b34565b82525050565b6000602082019050610b626000830184610b3e565b92915050565b600080fd5b600073ffffffffffffffffffffffffffffffffffffffff82169050919050565b6000610b9882610b6d565b9050919050565b610ba881610b8d565b8114610bb357600080fd5b50565b600081359050610bc581610b9f565b92915050565b600060208284031215610be157610be0610b68565b5b6000610bef84828501610bb6565b91505092915050565b60008115159050919050565b610c0d81610bf8565b82525050565b6000602082019050610c286000830184610c04565b92915050565b610c3781610b34565b8114610c4257600080fd5b50565b600081359050610c5481610c2e565b92915050565b600060208284031215610c7057610c6f610b68565b5b6000610c7e84828501610c45565b91505092915050565b6000819050919050565b6000610cac610ca7610ca284610b6d565b610c87565b610b6d565b9050919050565b6000610cbe82610c91565b9050919050565b6000610cd082610cb3565b9050919050565b610ce081610cc5565b82525050565b6000602082019050610cfb6000830184610cd7565b92915050565b6000610d0c82610cb3565b9050919050565b610d1c81610d01565b82525050565b6000602082019050610d376000830184610d13565b92915050565b610d4681610b8d565b82525050565b6000602082019050610d616000830184610d3d565b92915050565b600082825260208201905092915050565b7f43616e6e6f74207374617274206e6577207374616b696e6720726f756e64206260008201527f65666f7265207468652063757272656e74206f6e6520697320656e6465640000602082015250565b6000610dd4603e83610d67565b9150610ddf82610d78565b604082019050919050565b60006020820190508181036000830152610e0381610dc7565b9050919050565b7f4e487b7100000000000000000000000000000000000000000000000000000000600052601160045260246000fd5b6000610e4482610b34565b91507fffffffffffffffffffffffffffffffffffffffffffffffffffffffffffffffff821415610e7757610e76610e0a565b5b600182019050919050565b6000604082019050610e976000830185610d3d565b610ea46020830184610b3e565b9392505050565b6000610eb682610b34565b9150610ec183610b34565b9250817fffffffffffffffffffffffffffffffffffffffffffffffffffffffffffffffff0483118215151615610efa57610ef9610e0a565b5b828202905092915050565b6000610f1082610b34565b9150610f1b83610b34565b9250827fffffffffffffffffffffffffffffffffffffffffffffffffffffffffffffffff03821115610f5057610f4f610e0a565b5b828201905092915050565b7f43616e6e6f7420697373756520746f6b656e73206265666f726520746865206360008201527f757272656e74207374616b696e6720726f756e6420697320656e646564000000602082015250565b6000610fb7603d83610d67565b9150610fc282610f5b565b604082019050919050565b60006020820190508181036000830152610fe681610faa565b9050919050565b7f4e487b7100000000000000000000000000000000000000000000000000000000600052603260045260246000fd5b7f4e487b7100000000000000000000000000000000000000000000000000000000600052601260045260246000fd5b600061105682610b34565b915061106183610b34565b9250826110715761107061101c565b5b828204905092915050565b61108581610bf8565b811461109057600080fd5b50565b6000815190506110a28161107c565b92915050565b6000602082840312156110be576110bd610b68565b5b60006110cc84828501611093565b91505092915050565b7f5374616b696e6720616d6f756e74206d7573742062652067726561746572207460008201527f68616e2030000000000000000000000000000000000000000000000000000000602082015250565b6000611131602583610d67565b915061113c826110d5565b604082019050919050565b6000602082019050818103600083015261116081611124565b9050919050565b600060608201905061117c6000830186610d3d565b6111896020830185610d3d565b6111966040830184610b3e565b949350505050565b7f43616e6e6f7420756e5374616b6520746f6b656e73206265666f72652074686560008201527f2063757272656e74207374616b696e6720726f756e6420697320656e64656400602082015250565b60006111fa603f83610d67565b91506112058261119e565b604082019050919050565b60006020820190508181036000830152611229816111ed565b9050919050565b7f43616e6e6f7420756e7374616b6520746f6b656e7320696620796f752068617660008201527f65206e6f207374616b656420746f6b656e730000000000000000000000000000602082015250565b600061128c603283610d67565b915061129782611230565b604082019050919050565b600060208201905081810360008301526112bb8161127f565b905091905056fea264697066735822122026633bb4a7dd0b1d3d5923d15ea708832f0d55528a06262d29b08552013f48f764736f6c634300080b0033",
  "immutableReferences": {},
  "source": "pragma solidity ^0.8.0;\n\nimport \"./RapidToken.sol\";\nimport \"./RewardToken.sol\";\n\n/* This is a level 1 contract, it will distribute rewards proportional to the amount\nirrespective of when the user has staked the Rapid Tokens */\n\n\ncontract StakingFarm {\n\n    RapidToken public rapidToken;\n    RewardToken public rewardToken;\n\n    \n    //uint constant  numberOfBlocksPerDay = 28800; // Estimating Block Generation time as 3 seconds per block\n    //uint constant stakingDays = 30;\n\n    uint constant  numberOfBlocksPerDay = 1; // Estimating Block Generation time as 3 seconds per block\n    uint constant stakingDays = 30;\n\n    uint constant stakingPeriod = stakingDays * numberOfBlocksPerDay;\n    uint public currentStakingRound = 0;\n    uint public nextStakingRoundStartTime = 0;\n    uint rewardTokenPerBlock = 10 ** 18;\n    uint rewardTokensPerStakingPeriod = rewardTokenPerBlock * stakingPeriod;\n    uint public totalStakedTokens = 0;\n\n    address[] public stakers;\n    mapping(address=>uint) public stakingBalance;\n    mapping(address=>bool) public hasStaked;\n    mapping(address=>bool) public isStaking;\n    mapping(uint=>bool) public isCurrentStakingRoundEnded;\n\n    constructor(RapidToken _rapidToken, RewardToken _rewardToken)  {\n        rapidToken = _rapidToken;\n        rewardToken = _rewardToken;\n    }\n    function newStakingRound() public {\n        require(block.number>nextStakingRoundStartTime,\"Cannot start new staking round before the current one is ended\");\n        isCurrentStakingRoundEnded[currentStakingRound] = true;\n        currentStakingRound++;\n        rewardToken.mint(address(this), rewardTokensPerStakingPeriod);\n        nextStakingRoundStartTime = block.number + stakingPeriod;\n    }\n\n    function stakeTokens(uint _amount) public  {\n        require(_amount>0, \"Staking amount must be greater than 0\");\n        rapidToken.transferFrom(msg.sender, address(this), _amount);        \n        stakingBalance[msg.sender] += _amount;\n        stakers.push(msg.sender);\n        isStaking[msg.sender] = true;\n    }\n    function unStakeTokens() public {\n        require(isCurrentStakingRoundEnded[currentStakingRound], \"Cannot unStake tokens before the current staking round is ended\");\n        uint balance = stakingBalance[msg.sender];\n        require(balance>0, \"Cannot unstake tokens if you have no staked tokens\");\n        rapidToken.transferFrom(address(this), msg.sender, balance);\n        stakingBalance[msg.sender] = 0;\n        isStaking[msg.sender] = false;\n    }\n\n    function issueTokens() public {\n        require(block.number>nextStakingRoundStartTime, \"Cannot issue tokens before the current staking round is ended\");\n        for(uint i=0; i<stakers.length; i++) {\n            uint reward = (stakingBalance[stakers[i]] * rewardTokensPerStakingPeriod)/totalStakedTokens;\n            rewardToken.transfer(stakers[i], reward);\n        }\n        isCurrentStakingRoundEnded[currentStakingRound] = true;\n    }\n}",
  "sourcePath": "/home/mnr/workspace/Blockchain_Projects/Rapid/contracts/StakingFarm.sol",
  "compiler": {
    "name": "solc",
    "version": "0.8.11+commit.d7f03943.Emscripten.clang"
  },
  "schemaVersion": "3.4.4",
  "updatedAt": "2022-03-17T13:54:10.543Z",
  "networkType": "ethereum",
  "devdoc": {
    "kind": "dev",
    "methods": {},
    "version": 1
  },
  "userdoc": {
    "kind": "user",
    "methods": {},
    "version": 1
  }
}